:030000000203AE4A
:0C03AE00787FE4F6D8FD75811902000389
:10039D003F065B4F666D7D077F6F777C395E7971A8
:0103AD00004F
:06037900D2A47FF47E0116
:10037F00D3EF9400EE940040147D5A7C00ED1D7075
:0D038F00011CED4C70F7EF1F70E61E80E3BF
:01039C00223E
:10033B00AA05EF90039D93F5807580FE7F057E00E7
:10034B0012037FEA93F5807580FD7F057E00120313
:10035B007FEB93F5807580FB7F057E0012037FE5B5
:0E036B001993F5807580F77F057E0002037FF1
:1001AD00C3E50F940AE50E94005008850F087509F4
:1001BD00108025C3E50F9464E50E9400501FAE0E1C
:1001CD00AF0F7C007D0A1202998F08AE0EAF0F7C27
:1001DD00007D0A1202998D09750A10803FC3E50F43
:1001ED0094E8E50E94035039AE0EAF0F7C007D649C
:1001FD001202998F08AE0EAF0F7C007D641202992A
:10020D007E007F0ACFCDCFCECCCE1202998F09AE14
:10021D000EAF0F7C007D0A1202998D0A750B1080AE
:10022D0059C3E50F9410E50E94275054AE0EAF0F41
:10023D007C037DE81202998F08AE0EAF0F7C037D13
:10024D00E81202997E007F64CFCDCFCECCCE1202C4
:10025D00998F09AE0EAF0F7C007D641202997E005E
:10026D007F0ACFCDCFCECCCE1202998F0AAE0EAF74
:10027D000F7C007D0A1202998D0B750C10750D10F7
:0C028D00850B19AB0AAD09AF0802033B5A
:10000300C2A5C2A6C2A7C2A47FE87E0312037FD201
:10001300A5D2A6D2A7D2A4209046C2907F147E0078
:1000230012037F30903A3090FD7FE87E0312033055
:10003300E4F510F511C3E5119414E510940050DABA
:100043001202EE8E0E8F0F7418250FF50F74FC3508
:100053000EF50E1201AD0511E51170D9051080D50D
:10006300209137C2917F147E0012037F30912B3091
:1000730091FDE4F50EF50FC3E50F9410E50E940022
:1000830050E1E50F90039D93F5807580FE12037B8D
:10009300050FE50F70E1050E80DD2092377F147E9A
:1000A3000012037F30922D3092FDE4F50EF50FE53B
:1000B3000F90039D93F5801201AD7FE87E03120339
:1000C3007F050FE50F7002050EC39410E50E940033
:1000D30040DD80D62093267F147E0012037F309369
:1000E3001C3093FD7580FE7580DF7FE87E0312036D
:1000F3007FE4F5807FE87E0312037F80E720941876
:100103007F147E0012037F30940E3094FD209404FC
:10011300D2A480F9C2A480F52095297F147E001211
:10012300037F30951F3095FD209511C2A512037BE7
:10013300C2A612037BC2A712037B80ECD2A5D2A670
:10014300D2A780E420962BE4F50EF50F120379C2B3
:10015300A4C2967F147E0012037F3096153096FD5D
:10016300050FE50F7002050E1201AD120379C2A44B
:1001730080DA30970302001A750E00750F0112031F
:1001830079C2A4C2977F147E0012037F20970302D3
:10019300001A3097FDE50F25E0F50FE50E33F50E58
:0A01A3001201AD120379C2A480D44A
:10029900BC000BBE0029EF8DF084FFADF022E4CC49
:1002A900F875F008EF2FFFEE33FEEC33FCEE9DEC12
:1002B900984005FCEE9DFE0FD5F0E9E4CEFD22ED58
:1002C900F8F5F0EE8420D21CFEADF075F008EF2FA2
:1002D900FFED33FD4007985006D5F0F222C398FD93
:0502E9000FD5F0EA2230
:1002EE00AC12AD13AE14AF157810EC4D4E4F70042A
:1002FE007CA57DA5C3EC13FCED13FDEE13FEEF13F1
:10030E00FF5010EC64CCFCED644CFDEE644EFEEF41
:10031E0064CEFFD8DF8C128D138E148F15EE547FA2
:0D032E00FE228E128F1374A5F514F5152212
:00000001FF
